S018000073656C662064726976696E67206361722E73726563F9
S11300000C942A000C94C8020C9447000C944700EA
S11300100C9447000C9447000C9447000C94470040
S11300200C9447000C9447000C9447000C94470030
S11300300C9447000C9447000C9447000C94470020
S11300400C9447000C9447000C9447000C94470010
S11300500C94470011241FBECFE5D8E0DEBFCDBF0E
S113006010E0A0E6B0E0E8EDF7E002C005900D92E4
S1130070A837B107D9F720E0A8E7B0E001C01D9286
S1130080AE37B207E1F70E9449000C94EA030C94DE
S113009000000E94CC010E9466020E94F8000E94A7
S11300A0A0029093790080937800809178009091D9
S11300B079008397F8F060E080E00E94170160E027
S11300C081E00E9417018FE59AEE0197F1F700C0D5
S11300D0000080E00E945F0181E00E945F0180E6F1
S11300E090E00E9451028FE59AEE0197F1F700C06B
S11300F00000D5CF8091780090917900839778F6AD
S11301008AE590E00E9487020E94A0029093790001
S11301108093780080917800909179008397D8F04B
S11301200E94050288E690E00E94510260E080E0AF
S11301300E94170180E00E945F019FEF23ED80E39E
S1130140915020408040E1F700C0000086EA9FEF14
S11301500E94870248C0809178009091790083972B
S113016008F041C08CE49FEF0E9487020E94A00225
S11301709093790080937800809178009091790031
S11301808397D8F00E9405028EE690E00E94510207
S113019060E080E00E94170180E00E945F019FEF11
S11301A023ED80E3915020408040E1F700C000003F
S11301B08AE590E00E94870216C0809178009091B1
S11301C07900839780F40E94050283E790E00E94FF
S11301D0510280E00E945F0181E00E945F018AE594
S11301E090E00E948702109279001092780057CF15
S11301F041E064E083E00E94F90241E065E083E0CD
S11302000E94F90241E063E082E00E94F90241E0C9
S113021064E082E00E94F90241E065E082E00E942D
S1130220F90241E066E082E00E94F9020895CF936A
S1130230C62F882319F0813009F13FC041E064E002
S113024083E00E946A03CC2319F0C13061F035C009
S113025041E063E082E00E946A0340E064E082E0FF
S11302600E946A032AC040E063E082E00E946A03BD
S113027041E064E082E00E946A031FC041E065E05F
S113028083E00E946A03CC2319F0C13061F015C0E9
S113029041E065E082E00E946A0340E066E082E0BB
S11302A00E946A030AC040E065E082E00E946A039B
S11302B041E066E082E00E946A03CF9108958823BA
S11302C019F0813089F0089540E064E083E00E94F1
S11302D06A0340E063E082E00E946A0340E064E075
S11302E082E00E946A03089540E065E083E00E9492
S11302F06A0340E065E082E00E946A0340E066E051
S113030082E00E946A030895CF93C82F40E061E021
S113031081E00E946A0340E062E081E00E946A0397
S113032040E063E081E00E946A038BB39C2F907FDE
S11303308F70892B8BBB41E063E081E00E946A03EC
S11303408FE99FE00197F1F700C0000040E063E00F
S113035081E00E946A032BB330E1C39FC0011124E2
S1130360922F9F70892B8BBB41E063E081E00E9458
S11303706A038FE99FE00197F1F700C0000040E0B5
S113038063E081E00E946A038FE19EE40197F1F744
S113039000C00000CF91089541E061E081E00E9437
S11303A0F90241E062E081E00E94F90241E063E089
S11303B081E00E94F90241E064E080E00E94F902D9
S11303C041E065E080E00E94F90241E066E080E0FF
S11303D00E94F90241E067E080E00E94F90283E3B1
S11303E00E94840182E30E94840188E20E948401C5
S11303F082E00E9484018CE00E94840181E00E94DA
S1130400840186E00E948401089581E00E948401B1
S11304100895CF93C82F41E061E081E00E946A0310
S113042040E062E081E00E946A0340E063E081E032
S11304300E946A038BB39C2F907F8F70892B8BBB98
S113044041E063E081E00E946A038FE99FE0019745
S1130450F1F700C0000040E063E081E00E946A031D
S11304602BB330E1C39FC0011124922F9F70892BBD
S11304708BBB41E063E081E00E946A038FE99FE067
S11304800197F1F700C0000040E063E081E00E94C2
S11304906A038FE19EE40197F1F700C00000CF9159
S11304A00895CF93DF93EC018881882361F021962E
S11304B00E9409028FE39CE90197F1F700C0000054
S11304C089918111F5CFDF91CF9108958D9A8EB5E1
S11304D080618EBD8EB588608EBD8FB582608FBD04
S11304E08FB58E7F8FBD8FB580688FBD8FB58F7BA5
S11304F08FBD8EB584608EBD8EB58D7F8EBD8EB55D
S11305008E7F8EBD82EE94E097BD86BD089546B57C
S113051057B59C01429FC001439F900D529F900D7F
S113052011249C013695279536952795ABE7B4E1C0
S11305300E94DB039695879501979BBD8ABD08951C
S113054041E063E083E00E94F9028BB780648BBFD3
S113055085B7816085BF789441E063E083E00E94C1
S11305606A0380E58A95F1F740E063E083E00E9446
S11305706A0320917C0030917D00AFE9B6E40E94CB
S1130580DB03929582958F7089279F708927089540
S11305901F920F920FB60F9211248F939F93809105
S11305A07A0090917B00019771F41EBC8CB59DB5C7
S11305B090937D0080937C001DBC1CBC10927B003A
S11305C010927A000FC080917A0090917B00892B61
S11305D049F48EB581608EBD81E090E090937B00FC
S11305E080937A009F918F910F900FBE0F901F9070
S11305F01895442319F04130C9F10895813091F0E0
S113060028F08230D9F0833029F108952AB381E0AB
S113061090E002C0880F991F6A95E2F780958223C3
S11306208ABB089527B381E090E002C0880F991F28
S11306306A95E2F78095822387BB089524B381E00D
S113064090E002C0880F991F6A95E2F78095822393
S113065084BB089521B381E090E002C0880F991F04
S11306606A95E2F78095822381BB0895813089F0F1
S113067028F08230C9F0833011F108952AB381E063
S113068090E002C0880F991F6A95E2F7822B8ABB1B
S1130690089527B381E090E002C0880F991F6A95FE
S11306A0E2F7822B87BB089524B381E090E002C077
S11306B0880F991F6A95E2F7822B84BB089521B3B2
S11306C081E090E002C0880F991F6A95E2F7822BBF
S11306D081BB0895442319F04130C9F10895813054
S11306E091F028F08230D9F0833029F108952BB3AA
S11306F081E090E002C0880F991F6A95E2F7809527
S113070082238BBB089528B381E090E002C0880F58
S1130710991F6A95E2F78095822388BB089525B3D3
S113072081E090E002C0880F991F6A95E2F78095F6
S1130730822385BB089522B381E090E002C0880F34
S1130740991F6A95E2F78095822382BB08958130D0
S113075089F028F08230C9F0833011F108952BB369
S113076081E090E002C0880F991F6A95E2F7822B1E
S11307708BBB089528B381E090E002C0880F991FD5
S11307806A95E2F7822B88BB089525B381E090E057
S113079002C0880F991F6A95E2F7822B85BB0895E2
S11307A022B381E090E002C0880F991F6A95E2F7B6
S11307B0822B82BB0895A29FB001B39FC001A39F67
S11307C0700D811D1124911DB29F700D811D112486
S10B07D0911D0895F894FFCF78
S11307D8666F7277617264007269676874006C6529
S10B07E866740053746F700085
S9030000FC
